{
  "contractName": "EmployeeManagement",
  "abi": [
    {
      "anonymous": false,
      "inputs": [
        {
          "indexed": true,
          "internalType": "address",
          "name": "employeeAddress",
          "type": "address"
        },
        {
          "indexed": false,
          "internalType": "uint256",
          "name": "id",
          "type": "uint256"
        },
        {
          "indexed": false,
          "internalType": "string",
          "name": "name",
          "type": "string"
        },
        {
          "indexed": false,
          "internalType": "uint256",
          "name": "salary",
          "type": "uint256"
        }
      ],
      "name": "EmployeeAdded",
      "type": "event"
    },
    {
      "inputs": [
        {
          "internalType": "address",
          "name": "",
          "type": "address"
        }
      ],
      "name": "employees",
      "outputs": [
        {
          "internalType": "uint256",
          "name": "id",
          "type": "uint256"
        },
        {
          "internalType": "string",
          "name": "name",
          "type": "string"
        },
        {
          "internalType": "uint256",
          "name": "salary",
          "type": "uint256"
        },
        {
          "internalType": "bool",
          "name": "isActive",
          "type": "bool"
        }
      ],
      "stateMutability": "view",
      "type": "function"
    },
    {
      "inputs": [
        {
          "internalType": "address",
          "name": "_employeeAddress",
          "type": "address"
        },
        {
          "internalType": "uint256",
          "name": "_id",
          "type": "uint256"
        },
        {
          "internalType": "string",
          "name": "_name",
          "type": "string"
        },
        {
          "internalType": "uint256",
          "name": "_salary",
          "type": "uint256"
        }
      ],
      "name": "addEmployee",
      "outputs": [],
      "stateMutability": "nonpayable",
      "type": "function"
    },
    {
      "inputs": [
        {
          "internalType": "address",
          "name": "_employeeAddress",
          "type": "address"
        },
        {
          "internalType": "uint256",
          "name": "_id",
          "type": "uint256"
        },
        {
          "internalType": "string",
          "name": "_name",
          "type": "string"
        },
        {
          "internalType": "uint256",
          "name": "_salary",
          "type": "uint256"
        },
        {
          "internalType": "bool",
          "name": "_isActive",
          "type": "bool"
        }
      ],
      "name": "updateEmployee",
      "outputs": [],
      "stateMutability": "nonpayable",
      "type": "function"
    }
  ],
  "bytecode": "0x608060405234801561001057600080fd5b50610b10806100206000396000f3fe608060405234801561001057600080fd5b50600436106100415760003560e01c806344070ead14610046578063d067894714610062578063f5e9526a14610095575b600080fd5b610060600480360381019061005b9190610642565b6100b1565b005b61007c60048036038101906100779190610619565b610243565b60405161008c94939291906108a1565b60405180910390f35b6100af60048036038101906100aa91906106bd565b610308565b005b60008060008673ffffffffffffffffffffffffffffffffffffffff1673ffffffffffffffffffffffffffffffffffffffff1681526020019081526020016000206000015414610135576040517f08c379a000000000000000000000000000000000000000000000000000000000815260040161012c90610823565b60405180910390fd5b6040518060800160405280848152602001838152602001828152602001600115158152506000808673ffffffffffffffffffffffffffffffffffffffff1673ffffffffffffffffffffffffffffffffffffffff1681526020019081526020016000206000820151816000015560208201518160010190805190602001906101bd9291906104cf565b506040820151816002015560608201518160030160006101000a81548160ff0219169083151502179055509050508373ffffffffffffffffffffffffffffffffffffffff167fa0e0f6111d88d93eecc13135d46e071e5b449fa944c4f0740ea8396c7e46e57284848460405161023593929190610863565b60405180910390a250505050565b600060205280600052604060002060009150905080600001549080600101805461026c906109f4565b80601f0160208091040260200160405190810160405280929190818152602001828054610298906109f4565b80156102e55780601f106102ba576101008083540402835291602001916102e5565b820191906000526020600020905b8154815290600101906020018083116102c857829003601f168201915b5050505050908060020154908060030160009054906101000a900460ff16905084565b60008060008773ffffffffffffffffffffffffffffffffffffffff1673ffffffffffffffffffffffffffffffffffffffff16815260200190815260200160002060000154141561038d576040517f08c379a000000000000000000000000000000000000000000000000000000000815260040161038490610843565b60405180910390fd5b836000808773ffffffffffffffffffffffffffffffffffffffff1673ffffffffffffffffffffffffffffffffffffffff16815260200190815260200160002060000181905550826000808773ffffffffffffffffffffffffffffffffffffffff1673ffffffffffffffffffffffffffffffffffffffff16815260200190815260200160002060010190805190602001906104289291906104cf565b50816000808773ffffffffffffffffffffffffffffffffffffffff1673ffffffffffffffffffffffffffffffffffffffff16815260200190815260200160002060020181905550806000808773ffffffffffffffffffffffffffffffffffffffff1673ffffffffffffffffffffffffffffffffffffffff16815260200190815260200160002060030160006101000a81548160ff0219169083151502179055505050505050565b8280546104db906109f4565b90600052602060002090601f0160209004810192826104fd5760008555610544565b82601f1061051657805160ff1916838001178555610544565b82800160010185558215610544579182015b82811115610543578251825591602001919060010190610528565b5b5090506105519190610555565b5090565b5b8082111561056e576000816000905550600101610556565b5090565b60006105856105808461091e565b6108ed565b90508281526020810184848401111561059d57600080fd5b6105a88482856109b2565b509392505050565b6000813590506105bf81610a95565b92915050565b6000813590506105d481610aac565b92915050565b600082601f8301126105eb57600080fd5b81356105fb848260208601610572565b91505092915050565b60008135905061061381610ac3565b92915050565b60006020828403121561062b57600080fd5b6000610639848285016105b0565b91505092915050565b6000806000806080858703121561065857600080fd5b6000610666878288016105b0565b945050602061067787828801610604565b935050604085013567ffffffffffffffff81111561069457600080fd5b6106a0878288016105da565b92505060606106b187828801610604565b91505092959194509250565b600080600080600060a086880312156106d557600080fd5b60006106e3888289016105b0565b95505060206106f488828901610604565b945050604086013567ffffffffffffffff81111561071157600080fd5b61071d888289016105da565b935050606061072e88828901610604565b925050608061073f888289016105c5565b9150509295509295909350565b6107558161097c565b82525050565b60006107668261094e565b6107708185610959565b93506107808185602086016109c1565b61078981610a84565b840191505092915050565b60006107a1601783610959565b91507f456d706c6f79656520616c7265616479206578697374730000000000000000006000830152602082019050919050565b60006107e1601783610959565b91507f456d706c6f79656520646f6573206e6f742065786973740000000000000000006000830152602082019050919050565b61081d816109a8565b82525050565b6000602082019050818103600083015261083c81610794565b9050919050565b6000602082019050818103600083015261085c816107d4565b9050919050565b60006060820190506108786000830186610814565b818103602083015261088a818561075b565b90506108996040830184610814565b949350505050565b60006080820190506108b66000830187610814565b81810360208301526108c8818661075b565b90506108d76040830185610814565b6108e4606083018461074c565b95945050505050565b6000604051905081810181811067ffffffffffffffff8211171561091457610913610a55565b5b8060405250919050565b600067ffffffffffffffff82111561093957610938610a55565b5b601f19601f8301169050602081019050919050565b600081519050919050565b600082825260208201905092915050565b600061097582610988565b9050919050565b60008115159050919050565b600073ffffffffffffffffffffffffffffffffffffffff82169050919050565b6000819050919050565b82818337600083830152505050565b60005b838110156109df5780820151818401526020810190506109c4565b838111156109ee576000848401525b50505050565b60006002820490506001821680610a0c57607f821691505b60208210811415610a2057610a1f610a26565b5b50919050565b7f4e487b7100000000000000000000000000000000000000000000000000000000600052602260045260246000fd5b7f4e487b7100000000000000000000000000000000000000000000000000000000600052604160045260246000fd5b6000601f19601f8301169050919050565b610a9e8161096a565b8114610aa957600080fd5b50565b610ab58161097c565b8114610ac057600080fd5b50565b610acc816109a8565b8114610ad757600080fd5b5056fea26469706673582212206a63b6d79955b69242986aa7407592dea2a5e151abeb441074007fb1a533214f64736f6c63430008000033",
  "immutableReferences": {},
  "source": "// SPDX-License-Identifier: MIT\r\npragma solidity ^0.8.0;\r\n\r\ncontract EmployeeManagement {\r\n    // Structure to store employee details\r\n    struct Employee {\r\n        uint id;\r\n        string name;\r\n        uint salary;\r\n        bool isActive;\r\n    }\r\n    \r\n    // Mapping to store employees\r\n    mapping(address => Employee) public employees;\r\n    \r\n    // Event to log new employee addition\r\n    event EmployeeAdded(address indexed employeeAddress, uint id, string name, uint salary);\r\n    \r\n    // Function to add a new employee\r\n    function addEmployee(address _employeeAddress, uint _id, string memory _name, uint _salary) public {\r\n        require(employees[_employeeAddress].id == 0, \"Employee already exists\");\r\n        \r\n        employees[_employeeAddress] = Employee(_id, _name, _salary, true);\r\n        emit EmployeeAdded(_employeeAddress, _id, _name, _salary);\r\n    }\r\n    \r\n    // Function to update employee details\r\n    function updateEmployee(address _employeeAddress, uint _id, string memory _name, uint _salary, bool _isActive) public {\r\n        require(employees[_employeeAddress].id != 0, \"Employee does not exist\");\r\n        \r\n        employees[_employeeAddress].id = _id;\r\n        employees[_employeeAddress].name = _name;\r\n        employees[_employeeAddress].salary = _salary;\r\n        employees[_employeeAddress].isActive = _isActive;\r\n    }\r\n}\r\n",
  "sourcePath": "C:\\Users\\adesh\\Desktop\\erp-web3\\contracts\\EmployeeContract.sol",
  "compiler": {
    "name": "solc",
    "version": "0.8.0+commit.c7dfd78e.Emscripten.clang"
  },
  "schemaVersion": "3.4.16",
  "updatedAt": "2024-04-11T10:25:50.631Z",
  "devdoc": {
    "kind": "dev",
    "methods": {},
    "version": 1
  },
  "userdoc": {
    "kind": "user",
    "methods": {},
    "version": 1
  }
}