{
  "contractName": "EmployeeContract",
  "abi": [
    {
      "anonymous": false,
      "inputs": [
        {
          "indexed": true,
          "internalType": "uint256",
          "name": "id",
          "type": "uint256"
        },
        {
          "indexed": false,
          "internalType": "string",
          "name": "name",
          "type": "string"
        },
        {
          "indexed": false,
          "internalType": "string",
          "name": "position",
          "type": "string"
        },
        {
          "indexed": false,
          "internalType": "uint256",
          "name": "salary",
          "type": "uint256"
        }
      ],
      "name": "EmployeeAdded",
      "type": "event"
    },
    {
      "anonymous": false,
      "inputs": [
        {
          "indexed": true,
          "internalType": "uint256",
          "name": "id",
          "type": "uint256"
        }
      ],
      "name": "EmployeeDeleted",
      "type": "event"
    },
    {
      "anonymous": false,
      "inputs": [
        {
          "indexed": true,
          "internalType": "uint256",
          "name": "id",
          "type": "uint256"
        },
        {
          "indexed": false,
          "internalType": "string",
          "name": "name",
          "type": "string"
        },
        {
          "indexed": false,
          "internalType": "string",
          "name": "position",
          "type": "string"
        },
        {
          "indexed": false,
          "internalType": "uint256",
          "name": "salary",
          "type": "uint256"
        }
      ],
      "name": "EmployeeUpdated",
      "type": "event"
    },
    {
      "inputs": [],
      "name": "employeeCount",
      "outputs": [
        {
          "internalType": "uint256",
          "name": "",
          "type": "uint256"
        }
      ],
      "stateMutability": "view",
      "type": "function",
      "constant": true
    },
    {
      "inputs": [
        {
          "internalType": "uint256",
          "name": "",
          "type": "uint256"
        }
      ],
      "name": "employees",
      "outputs": [
        {
          "internalType": "uint256",
          "name": "id",
          "type": "uint256"
        },
        {
          "internalType": "string",
          "name": "name",
          "type": "string"
        },
        {
          "internalType": "string",
          "name": "position",
          "type": "string"
        },
        {
          "internalType": "uint256",
          "name": "salary",
          "type": "uint256"
        },
        {
          "internalType": "bool",
          "name": "isActive",
          "type": "bool"
        }
      ],
      "stateMutability": "view",
      "type": "function",
      "constant": true
    },
    {
      "inputs": [
        {
          "internalType": "string",
          "name": "_name",
          "type": "string"
        },
        {
          "internalType": "string",
          "name": "_position",
          "type": "string"
        },
        {
          "internalType": "uint256",
          "name": "_salary",
          "type": "uint256"
        }
      ],
      "name": "addEmployee",
      "outputs": [],
      "stateMutability": "nonpayable",
      "type": "function"
    },
    {
      "inputs": [
        {
          "internalType": "uint256",
          "name": "_id",
          "type": "uint256"
        },
        {
          "internalType": "string",
          "name": "_name",
          "type": "string"
        },
        {
          "internalType": "string",
          "name": "_position",
          "type": "string"
        },
        {
          "internalType": "uint256",
          "name": "_salary",
          "type": "uint256"
        }
      ],
      "name": "updateEmployee",
      "outputs": [],
      "stateMutability": "nonpayable",
      "type": "function"
    },
    {
      "inputs": [
        {
          "internalType": "uint256",
          "name": "_id",
          "type": "uint256"
        }
      ],
      "name": "deleteEmployee",
      "outputs": [],
      "stateMutability": "nonpayable",
      "type": "function"
    },
    {
      "inputs": [],
      "name": "getAllEmployees",
      "outputs": [
        {
          "components": [
            {
              "internalType": "uint256",
              "name": "id",
              "type": "uint256"
            },
            {
              "internalType": "string",
              "name": "name",
              "type": "string"
            },
            {
              "internalType": "string",
              "name": "position",
              "type": "string"
            },
            {
              "internalType": "uint256",
              "name": "salary",
              "type": "uint256"
            },
            {
              "internalType": "bool",
              "name": "isActive",
              "type": "bool"
            }
          ],
          "internalType": "struct EmployeeContract.Employee[]",
          "name": "",
          "type": "tuple[]"
        }
      ],
      "stateMutability": "view",
      "type": "function",
      "constant": true
    },
    {
      "inputs": [],
      "name": "getEmployeeCount",
      "outputs": [
        {
          "internalType": "uint256",
          "name": "",
          "type": "uint256"
        }
      ],
      "stateMutability": "view",
      "type": "function",
      "constant": true
    },
    {
      "inputs": [
        {
          "internalType": "uint256",
          "name": "_id",
          "type": "uint256"
        }
      ],
      "name": "getEmployee",
      "outputs": [
        {
          "components": [
            {
              "internalType": "uint256",
              "name": "id",
              "type": "uint256"
            },
            {
              "internalType": "string",
              "name": "name",
              "type": "string"
            },
            {
              "internalType": "string",
              "name": "position",
              "type": "string"
            },
            {
              "internalType": "uint256",
              "name": "salary",
              "type": "uint256"
            },
            {
              "internalType": "bool",
              "name": "isActive",
              "type": "bool"
            }
          ],
          "internalType": "struct EmployeeContract.Employee",
          "name": "",
          "type": "tuple"
        }
      ],
      "stateMutability": "view",
      "type": "function",
      "constant": true
    }
  ],
  "bytecode": "0x608060405234801561001057600080fd5b50611296806100206000396000f3fe608060405234801561001057600080fd5b50600436106100885760003560e01c8063c2a63e3b1161005b578063c2a63e3b1461012b578063e3366fed14610149578063e7880bca14610167578063e78cf2041461018357610088565b80631cbc90c71461008d5780634739326b146100a95780639047bf58146100dd578063bca9a5c5146100fb575b600080fd5b6100a760048036038101906100a29190610b8b565b61019f565b005b6100c360048036038101906100be9190610b8b565b610242565b6040516100d4959493929190610f7c565b60405180910390f35b6100e5610395565b6040516100f29190610f61565b60405180910390f35b61011560048036038101906101109190610b8b565b61039b565b6040516101229190610f3f565b60405180910390f35b61013361055f565b6040516101409190610f61565b60405180910390f35b610151610569565b60405161015e9190610eb8565b60405180910390f35b610181600480360381019061017c9190610b0c565b6107d6565b005b61019d60048036038101906101989190610bb4565b6108e2565b005b6001548111156101e4576040517f08c379a00000000000000000000000000000000000000000000000000000000081526004016101db90610f1f565b60405180910390fd5b600080600083815260200190815260200160002060040160006101000a81548160ff021916908315150217905550807fa89a67b24ae06befcf89d45d10287b1cdd7a3a494ba14df282fca0d57fe4fe1f60405160405180910390a250565b600060205280600052604060002060009150905080600001549080600101805461026b90611130565b80601f016020809104026020016040519081016040528092919081815260200182805461029790611130565b80156102e45780601f106102b9576101008083540402835291602001916102e4565b820191906000526020600020905b8154815290600101906020018083116102c757829003601f168201915b5050505050908060020180546102f990611130565b80601f016020809104026020016040519081016040528092919081815260200182805461032590611130565b80156103725780601f1061034757610100808354040283529160200191610372565b820191906000526020600020905b81548152906001019060200180831161035557829003601f168201915b5050505050908060030154908060040160009054906101000a900460ff16905085565b60015481565b6103a36109bb565b6001548211156103e8576040517f08c379a00000000000000000000000000000000000000000000000000000000081526004016103df90610f1f565b60405180910390fd5b6000808381526020019081526020016000206040518060a00160405290816000820154815260200160018201805461041f90611130565b80601f016020809104026020016040519081016040528092919081815260200182805461044b90611130565b80156104985780601f1061046d57610100808354040283529160200191610498565b820191906000526020600020905b81548152906001019060200180831161047b57829003601f168201915b505050505081526020016002820180546104b190611130565b80601f01602080910402602001604051908101604052809291908181526020018280546104dd90611130565b801561052a5780601f106104ff5761010080835404028352916020019161052a565b820191906000526020600020905b81548152906001019060200180831161050d57829003601f168201915b50505050508152602001600382015481526020016004820160009054906101000a900460ff1615151515815250509050919050565b6000600154905090565b6060600060015467ffffffffffffffff8111156105af577f4e487b7100000000000000000000000000000000000000000000000000000000600052604160045260246000fd5b6040519080825280602002602001820160405280156105e857816020015b6105d56109bb565b8152602001906001900390816105cd5790505b5090506000600190505b60015481116107ce576000808281526020019081526020016000206040518060a00160405290816000820154815260200160018201805461063290611130565b80601f016020809104026020016040519081016040528092919081815260200182805461065e90611130565b80156106ab5780601f10610680576101008083540402835291602001916106ab565b820191906000526020600020905b81548152906001019060200180831161068e57829003601f168201915b505050505081526020016002820180546106c490611130565b80601f01602080910402602001604051908101604052809291908181526020018280546106f090611130565b801561073d5780601f106107125761010080835404028352916020019161073d565b820191906000526020600020905b81548152906001019060200180831161072057829003601f168201915b50505050508152602001600382015481526020016004820160009054906101000a900460ff1615151515815250508260018361077991906110a4565b815181106107b0577f4e487b7100000000000000000000000000000000000000000000000000000000600052603260045260246000fd5b602002602001018190525080806107c690611162565b9150506105f2565b508091505090565b600160008154809291906107e990611162565b91905055506040518060a0016040528060015481526020018481526020018381526020018281526020016001151581525060008060015481526020019081526020016000206000820151816000015560208201518160010190805190602001906108549291906109ec565b5060408201518160020190805190602001906108719291906109ec565b506060820151816003015560808201518160040160006101000a81548160ff0219169083151502179055509050506001547f2a1578cff8d9d391798843a45be7cfccbeaad3be268360a0f140d09296e040678484846040516108d593929190610eda565b60405180910390a2505050565b600154841115610927576040517f08c379a000000000000000000000000000000000000000000000000000000000815260040161091e90610f1f565b60405180910390fd5b60008060008681526020019081526020016000209050838160010190805190602001906109559291906109ec565b508281600201908051906020019061096e9291906109ec565b50818160030181905550847f6340b306086dc0f5d35d528d301b85144ccd72cabb9cd512848159e941ef24be8585856040516109ac93929190610eda565b60405180910390a25050505050565b6040518060a00160405280600081526020016060815260200160608152602001600081526020016000151581525090565b8280546109f890611130565b90600052602060002090601f016020900481019282610a1a5760008555610a61565b82601f10610a3357805160ff1916838001178555610a61565b82800160010185558215610a61579182015b82811115610a60578251825591602001919060010190610a45565b5b509050610a6e9190610a72565b5090565b5b80821115610a8b576000816000905550600101610a73565b5090565b6000610aa2610a9d8461100e565b610fdd565b905082815260208101848484011115610aba57600080fd5b610ac58482856110ee565b509392505050565b600082601f830112610ade57600080fd5b8135610aee848260208601610a8f565b91505092915050565b600081359050610b0681611249565b92915050565b600080600060608486031215610b2157600080fd5b600084013567ffffffffffffffff811115610b3b57600080fd5b610b4786828701610acd565b935050602084013567ffffffffffffffff811115610b6457600080fd5b610b7086828701610acd565b9250506040610b8186828701610af7565b9150509250925092565b600060208284031215610b9d57600080fd5b6000610bab84828501610af7565b91505092915050565b60008060008060808587031215610bca57600080fd5b6000610bd887828801610af7565b945050602085013567ffffffffffffffff811115610bf557600080fd5b610c0187828801610acd565b935050604085013567ffffffffffffffff811115610c1e57600080fd5b610c2a87828801610acd565b9250506060610c3b87828801610af7565b91505092959194509250565b6000610c538383610da0565b905092915050565b6000610c668261104e565b610c708185611071565b935083602082028501610c828561103e565b8060005b85811015610cbe5784840389528151610c9f8582610c47565b9450610caa83611064565b925060208a01995050600181019050610c86565b50829750879550505050505092915050565b610cd9816110d8565b82525050565b610ce8816110d8565b82525050565b6000610cf982611059565b610d038185611082565b9350610d138185602086016110fd565b610d1c81611238565b840191505092915050565b6000610d3282611059565b610d3c8185611093565b9350610d4c8185602086016110fd565b610d5581611238565b840191505092915050565b6000610d6d601783611093565b91507f456d706c6f79656520646f6573206e6f742065786973740000000000000000006000830152602082019050919050565b600060a083016000830151610db86000860182610e9a565b5060208301518482036020860152610dd08282610cee565b91505060408301518482036040860152610dea8282610cee565b9150506060830151610dff6060860182610e9a565b506080830151610e126080860182610cd0565b508091505092915050565b600060a083016000830151610e356000860182610e9a565b5060208301518482036020860152610e4d8282610cee565b91505060408301518482036040860152610e678282610cee565b9150506060830151610e7c6060860182610e9a565b506080830151610e8f6080860182610cd0565b508091505092915050565b610ea3816110e4565b82525050565b610eb2816110e4565b82525050565b60006020820190508181036000830152610ed28184610c5b565b905092915050565b60006060820190508181036000830152610ef48186610d27565b90508181036020830152610f088185610d27565b9050610f176040830184610ea9565b949350505050565b60006020820190508181036000830152610f3881610d60565b9050919050565b60006020820190508181036000830152610f598184610e1d565b905092915050565b6000602082019050610f766000830184610ea9565b92915050565b600060a082019050610f916000830188610ea9565b8181036020830152610fa38187610d27565b90508181036040830152610fb78186610d27565b9050610fc66060830185610ea9565b610fd36080830184610cdf565b9695505050505050565b6000604051905081810181811067ffffffffffffffff8211171561100457611003611209565b5b8060405250919050565b600067ffffffffffffffff82111561102957611028611209565b5b601f19601f8301169050602081019050919050565b6000819050602082019050919050565b600081519050919050565b600081519050919050565b6000602082019050919050565b600082825260208201905092915050565b600082825260208201905092915050565b600082825260208201905092915050565b60006110af826110e4565b91506110ba836110e4565b9250828210156110cd576110cc6111ab565b5b828203905092915050565b60008115159050919050565b6000819050919050565b82818337600083830152505050565b60005b8381101561111b578082015181840152602081019050611100565b8381111561112a576000848401525b50505050565b6000600282049050600182168061114857607f821691505b6020821081141561115c5761115b6111da565b5b50919050565b600061116d826110e4565b91507fffffffffffffffffffffffffffffffffffffffffffffffffffffffffffffffff8214156111a05761119f6111ab565b5b600182019050919050565b7f4e487b7100000000000000000000000000000000000000000000000000000000600052601160045260246000fd5b7f4e487b7100000000000000000000000000000000000000000000000000000000600052602260045260246000fd5b7f4e487b7100000000000000000000000000000000000000000000000000000000600052604160045260246000fd5b6000601f19601f8301169050919050565b611252816110e4565b811461125d57600080fd5b5056fea2646970667358221220e1baa8a6c384d4901231cd7ca2206f7969c204b75f39330386c824656df9a73364736f6c63430008000033",
  "immutableReferences": {},
  "source": "// SPDX-License-Identifier: MIT\r\npragma solidity ^0.8.0;\r\n\r\ncontract EmployeeContract {\r\n    // Structure to store employee details\r\n    struct Employee {\r\n        uint id;\r\n        string name;\r\n        string position;\r\n        uint salary;\r\n        bool isActive;\r\n    }\r\n\r\n    // Mapping to store employees\r\n    mapping(uint => Employee) public employees;\r\n    uint public employeeCount;\r\n\r\n    // Event to log new employee addition\r\n    event EmployeeAdded(uint indexed id, string name, string position, uint salary);\r\n    event EmployeeUpdated(uint indexed id, string name, string position, uint salary);\r\n    event EmployeeDeleted(uint indexed id);\r\n\r\n    // Function to add a new employee\r\n    function addEmployee(string memory _name, string memory _position, uint _salary) public {\r\n        employeeCount++;\r\n        employees[employeeCount] = Employee(employeeCount, _name, _position, _salary, true);\r\n        emit EmployeeAdded(employeeCount, _name, _position, _salary);\r\n    }\r\n\r\n    // Function to update employee details\r\n    function updateEmployee(uint _id, string memory _name, string memory _position, uint _salary) public {\r\n        require(_id <= employeeCount, \"Employee does not exist\");\r\n        Employee storage employee = employees[_id];\r\n        employee.name = _name;\r\n        employee.position = _position;\r\n        employee.salary = _salary;\r\n        emit EmployeeUpdated(_id, _name, _position, _salary);\r\n    }\r\n\r\n    // Function to delete an employee\r\n    function deleteEmployee(uint _id) public {\r\n        require(_id <= employeeCount, \"Employee does not exist\");\r\n        employees[_id].isActive = false;\r\n        emit EmployeeDeleted(_id);\r\n    }\r\n\r\n    // Function to get all employees\r\n    function getAllEmployees() public view returns (Employee[] memory) {\r\n        Employee[] memory allEmployees = new Employee[](employeeCount);\r\n        for (uint i = 1; i <= employeeCount; i++) {\r\n            allEmployees[i - 1] = employees[i];\r\n        }\r\n        return allEmployees;\r\n    }\r\n\r\n    function getEmployeeCount() public view returns (uint) {\r\n        return employeeCount;\r\n    }\r\n\r\n\r\n    // Function to get an employee by ID\r\n    function getEmployee(uint _id) public view returns (Employee memory) {\r\n        require(_id <= employeeCount, \"Employee does not exist\");\r\n        return employees[_id];\r\n    }\r\n}\r\n",
  "sourcePath": "C:\\Users\\adesh\\Desktop\\erp-web3\\contracts\\EmployeeContract.sol",
  "compiler": {
    "name": "solc",
    "version": "0.8.0+commit.c7dfd78e.Emscripten.clang"
  },
  "schemaVersion": "3.4.16",
  "updatedAt": "2024-04-11T11:11:26.197Z",
  "networkType": "ethereum",
  "devdoc": {
    "kind": "dev",
    "methods": {},
    "version": 1
  },
  "userdoc": {
    "kind": "user",
    "methods": {},
    "version": 1
  }
}