{
  "contractName": "Employee",
  "abi": [
    {
      "anonymous": false,
      "inputs": [
        {
          "indexed": false,
          "internalType": "uint256",
          "name": "id",
          "type": "uint256"
        },
        {
          "indexed": false,
          "internalType": "string",
          "name": "name",
          "type": "string"
        },
        {
          "indexed": false,
          "internalType": "string",
          "name": "designation",
          "type": "string"
        },
        {
          "indexed": false,
          "internalType": "uint256",
          "name": "department",
          "type": "uint256"
        }
      ],
      "name": "EmployeeAdded",
      "type": "event"
    },
    {
      "anonymous": false,
      "inputs": [
        {
          "indexed": false,
          "internalType": "uint256",
          "name": "id",
          "type": "uint256"
        }
      ],
      "name": "EmployeeDeleted",
      "type": "event"
    },
    {
      "anonymous": false,
      "inputs": [
        {
          "indexed": false,
          "internalType": "uint256",
          "name": "id",
          "type": "uint256"
        },
        {
          "indexed": false,
          "internalType": "string",
          "name": "name",
          "type": "string"
        },
        {
          "indexed": false,
          "internalType": "string",
          "name": "designation",
          "type": "string"
        },
        {
          "indexed": false,
          "internalType": "uint256",
          "name": "department",
          "type": "uint256"
        }
      ],
      "name": "EmployeeUpdated",
      "type": "event"
    },
    {
      "inputs": [
        {
          "internalType": "uint256",
          "name": "",
          "type": "uint256"
        }
      ],
      "name": "employees",
      "outputs": [
        {
          "internalType": "uint256",
          "name": "id",
          "type": "uint256"
        },
        {
          "internalType": "string",
          "name": "name",
          "type": "string"
        },
        {
          "internalType": "string",
          "name": "designation",
          "type": "string"
        },
        {
          "internalType": "uint256",
          "name": "department",
          "type": "uint256"
        }
      ],
      "stateMutability": "view",
      "type": "function"
    },
    {
      "inputs": [],
      "name": "nextEmployeeId",
      "outputs": [
        {
          "internalType": "uint256",
          "name": "",
          "type": "uint256"
        }
      ],
      "stateMutability": "view",
      "type": "function"
    },
    {
      "inputs": [
        {
          "internalType": "string",
          "name": "_name",
          "type": "string"
        },
        {
          "internalType": "string",
          "name": "_designation",
          "type": "string"
        },
        {
          "internalType": "uint256",
          "name": "_department",
          "type": "uint256"
        }
      ],
      "name": "addEmployee",
      "outputs": [],
      "stateMutability": "nonpayable",
      "type": "function"
    },
    {
      "inputs": [
        {
          "internalType": "uint256",
          "name": "_id",
          "type": "uint256"
        },
        {
          "internalType": "string",
          "name": "_name",
          "type": "string"
        },
        {
          "internalType": "string",
          "name": "_designation",
          "type": "string"
        },
        {
          "internalType": "uint256",
          "name": "_department",
          "type": "uint256"
        }
      ],
      "name": "updateEmployee",
      "outputs": [],
      "stateMutability": "nonpayable",
      "type": "function"
    },
    {
      "inputs": [
        {
          "internalType": "uint256",
          "name": "_id",
          "type": "uint256"
        }
      ],
      "name": "deleteEmployee",
      "outputs": [],
      "stateMutability": "nonpayable",
      "type": "function"
    }
  ],
  "bytecode": "0x608060405260018055348015610013575f80fd5b50610cfc806100215f395ff3fe608060405234801561000f575f80fd5b5060043610610055575f3560e01c80631cbc90c7146100595780634739326b146100755780636619451b146100a8578063e7880bca146100c6578063e78cf204146100e2575b5f80fd5b610073600480360381019061006e9190610570565b6100fe565b005b61008f600480360381019061008a9190610570565b6101ca565b60405161009f9493929190610634565b60405180910390f35b6100b0610301565b6040516100bd9190610685565b60405180910390f35b6100e060048036038101906100db91906107ca565b610307565b005b6100fc60048036038101906100f79190610852565b6103e3565b005b5f805f8381526020019081526020015f205f015411610152576040517f08c379a000000000000000000000000000000000000000000000000000000000815260040161014990610938565b60405180910390fd5b5f808281526020019081526020015f205f8082015f9055600182015f61017891906104d4565b600282015f61018791906104d4565b600382015f905550507fa89a67b24ae06befcf89d45d10287b1cdd7a3a494ba14df282fca0d57fe4fe1f816040516101bf9190610685565b60405180910390a150565b5f602052805f5260405f205f91509050805f0154908060010180546101ee90610983565b80601f016020809104026020016040519081016040528092919081815260200182805461021a90610983565b80156102655780601f1061023c57610100808354040283529160200191610265565b820191905f5260205f20905b81548152906001019060200180831161024857829003601f168201915b50505050509080600201805461027a90610983565b80601f01602080910402602001604051908101604052809291908181526020018280546102a690610983565b80156102f15780601f106102c8576101008083540402835291602001916102f1565b820191905f5260205f20905b8154815290600101906020018083116102d457829003601f168201915b5050505050908060030154905084565b60015481565b60405180608001604052806001548152602001848152602001838152602001828152505f8060015481526020019081526020015f205f820151815f015560208201518160010190816103599190610b50565b50604082015181600201908161036f9190610b50565b506060820151816003015590505060015f81548092919061038f90610c4c565b91905055507f2a1578cff8d9d391798843a45be7cfccbeaad3be268360a0f140d09296e04067600180546103c39190610c93565b8484846040516103d69493929190610634565b60405180910390a1505050565b5f805f8681526020019081526020015f205f015411610437576040517f08c379a000000000000000000000000000000000000000000000000000000000815260040161042e90610938565b60405180910390fd5b825f808681526020019081526020015f2060010190816104579190610b50565b50815f808681526020019081526020015f2060020190816104789190610b50565b50805f808681526020019081526020015f20600301819055507f6340b306086dc0f5d35d528d301b85144ccd72cabb9cd512848159e941ef24be848484846040516104c69493929190610634565b60405180910390a150505050565b5080546104e090610983565b5f825580601f106104f1575061050e565b601f0160209004905f5260205f209081019061050d9190610511565b5b50565b5b80821115610528575f815f905550600101610512565b5090565b5f604051905090565b5f80fd5b5f80fd5b5f819050919050565b61054f8161053d565b8114610559575f80fd5b50565b5f8135905061056a81610546565b92915050565b5f6020828403121561058557610584610535565b5b5f6105928482850161055c565b91505092915050565b6105a48161053d565b82525050565b5f81519050919050565b5f82825260208201905092915050565b5f5b838110156105e15780820151818401526020810190506105c6565b5f8484015250505050565b5f601f19601f8301169050919050565b5f610606826105aa565b61061081856105b4565b93506106208185602086016105c4565b610629816105ec565b840191505092915050565b5f6080820190506106475f83018761059b565b818103602083015261065981866105fc565b9050818103604083015261066d81856105fc565b905061067c606083018461059b565b95945050505050565b5f6020820190506106985f83018461059b565b92915050565b5f80fd5b5f80fd5b7f4e487b71000000000000000000000000000000000000000000000000000000005f52604160045260245ffd5b6106dc826105ec565b810181811067ffffffffffffffff821117156106fb576106fa6106a6565b5b80604052505050565b5f61070d61052c565b905061071982826106d3565b919050565b5f67ffffffffffffffff821115610738576107376106a6565b5b610741826105ec565b9050602081019050919050565b828183375f83830152505050565b5f61076e6107698461071e565b610704565b90508281526020810184848401111561078a576107896106a2565b5b61079584828561074e565b509392505050565b5f82601f8301126107b1576107b061069e565b5b81356107c184826020860161075c565b91505092915050565b5f805f606084860312156107e1576107e0610535565b5b5f84013567ffffffffffffffff8111156107fe576107fd610539565b5b61080a8682870161079d565b935050602084013567ffffffffffffffff81111561082b5761082a610539565b5b6108378682870161079d565b92505060406108488682870161055c565b9150509250925092565b5f805f806080858703121561086a57610869610535565b5b5f6108778782880161055c565b945050602085013567ffffffffffffffff81111561089857610897610539565b5b6108a48782880161079d565b935050604085013567ffffffffffffffff8111156108c5576108c4610539565b5b6108d18782880161079d565b92505060606108e28782880161055c565b91505092959194509250565b7f456d706c6f79656520646f6573206e6f742065786973740000000000000000005f82015250565b5f6109226017836105b4565b915061092d826108ee565b602082019050919050565b5f6020820190508181035f83015261094f81610916565b9050919050565b7f4e487b71000000000000000000000000000000000000000000000000000000005f52602260045260245ffd5b5f600282049050600182168061099a57607f821691505b6020821081036109ad576109ac610956565b5b50919050565b5f819050815f5260205f209050919050565b5f6020601f8301049050919050565b5f82821b905092915050565b5f60088302610a0f7fffffffffffffffffffffffffffffffffffffffffffffffffffffffffffffffff826109d4565b610a1986836109d4565b95508019841693508086168417925050509392505050565b5f819050919050565b5f610a54610a4f610a4a8461053d565b610a31565b61053d565b9050919050565b5f819050919050565b610a6d83610a3a565b610a81610a7982610a5b565b8484546109e0565b825550505050565b5f90565b610a95610a89565b610aa0818484610a64565b505050565b5b81811015610ac357610ab85f82610a8d565b600181019050610aa6565b5050565b601f821115610b0857610ad9816109b3565b610ae2846109c5565b81016020851015610af1578190505b610b05610afd856109c5565b830182610aa5565b50505b505050565b5f82821c905092915050565b5f610b285f1984600802610b0d565b1980831691505092915050565b5f610b408383610b19565b9150826002028217905092915050565b610b59826105aa565b67ffffffffffffffff811115610b7257610b716106a6565b5b610b7c8254610983565b610b87828285610ac7565b5f60209050601f831160018114610bb8575f8415610ba6578287015190505b610bb08582610b35565b865550610c17565b601f198416610bc6866109b3565b5f5b82811015610bed57848901518255600182019150602085019450602081019050610bc8565b86831015610c0a5784890151610c06601f891682610b19565b8355505b6001600288020188555050505b505050505050565b7f4e487b71000000000000000000000000000000000000000000000000000000005f52601160045260245ffd5b5f610c568261053d565b91507fffffffffffffffffffffffffffffffffffffffffffffffffffffffffffffffff8203610c8857610c87610c1f565b5b600182019050919050565b5f610c9d8261053d565b9150610ca88361053d565b9250828203905081811115610cc057610cbf610c1f565b5b9291505056fea2646970667358221220c43040823b32f281ea8dec8327e014c3d5d2c83898bd8900360b0ae5c13fce3b64736f6c63430008150033",
  "immutableReferences": {},
  "source": "pragma solidity ^0.8.0;\r\n\r\ncontract Employee {\r\n    // Structure to define an employee\r\n    struct EmployeeInfo {\r\n        uint256 id;\r\n        string name;\r\n        string designation;\r\n        uint256 department; // Can be a string or an enum for departments\r\n    }\r\n\r\n    // Mapping to store employees (key: employee ID, value: EmployeeInfo struct)\r\n    mapping(uint256 => EmployeeInfo) public employees;\r\n\r\n    // Current employee ID (auto-increments)\r\n    uint256 public nextEmployeeId = 1;\r\n\r\n    // Event to be emitted when an employee is added\r\n    event EmployeeAdded(uint256 id, string name, string designation, uint256 department);\r\n\r\n    // Event to be emitted when an employee is updated\r\n    event EmployeeUpdated(uint256 id, string name, string designation, uint256 department);\r\n\r\n    // Event to be emitted when an employee is deleted\r\n    event EmployeeDeleted(uint256 id);\r\n\r\n    // Function to add a new employee\r\n    function addEmployee(string memory _name, string memory _designation, uint256 _department) public {\r\n        employees[nextEmployeeId] = EmployeeInfo(nextEmployeeId, _name, _designation, _department);\r\n        nextEmployeeId++;\r\n        emit EmployeeAdded(nextEmployeeId - 1, _name, _designation, _department);\r\n    }\r\n\r\n    // Function to update an existing employee's details\r\n    function updateEmployee(uint256 _id, string memory _name, string memory _designation, uint256 _department) public {\r\n        require(employees[_id].id > 0, \"Employee does not exist\");\r\n        employees[_id].name = _name;\r\n        employees[_id].designation = _designation;\r\n        employees[_id].department = _department;\r\n        emit EmployeeUpdated(_id, _name, _designation, _department);\r\n    }\r\n\r\n    // Function to delete an employee\r\n    function deleteEmployee(uint256 _id) public {\r\n        require(employees[_id].id > 0, \"Employee does not exist\");\r\n        delete employees[_id];\r\n        emit EmployeeDeleted(_id);\r\n    }\r\n}\r\n",
  "sourcePath": "C:\\Users\\adesh\\Desktop\\erp-web3\\contracts\\EmployeeContract.sol",
  "compiler": {
    "name": "solc",
    "version": "0.8.21+commit.d9974bed.Emscripten.clang"
  },
  "schemaVersion": "3.4.16",
  "updatedAt": "2024-04-11T10:18:29.319Z",
  "devdoc": {
    "kind": "dev",
    "methods": {},
    "version": 1
  },
  "userdoc": {
    "kind": "user",
    "methods": {},
    "version": 1
  }
}